:020000040202F6
:1070000000800020A9D4020280B500AF0021042036
:10701000F9F76EF84FF4FA710620F9F769F800BF36
:1070200080BD000080B500AF194801F077F801215C
:10703000242000F00DFE0121242000F059FE154B04
:1070400000221A63134B00225A64124B00229A63E7
:10705000104B00225A600F4B0D225A620D4B012239
:107060009A620C4B7022DA620A4B40F201125A63A8
:10707000084B00229A63074B40F201121A63054B3A
:1070800000229A64044B6FF07E42DA6400BF80BD38
:1070900002002100001001400060004080B400AFF9
:1070A00000BFBD465DF8047B70470000F0B58BB0B3
:1070B00006AFF860B960FB689D69FB685E69FB68B4
:1070C000DB697B60FB681B68FA685268F96889684D
:1070D000F868C068FC6824690494039002910192E6
:1070E00000937B68324629460148F9F72BF9FEE701
:1070F0005CEA020280B582B000AF786039607B68DC
:1071000019687B685B681A460148F9F71BF9FEE7C6
:10711000D4EA020280B582B000AF78603960796845
:107120000148F9F70FF9FEE7ECEA020280B582B0F8
:1071300000AF7860396000BF084801F06FF903467E
:10714000012BF9D07B681B781946044801F077F9C8
:10715000002318460837BD4680BD00BF001001401F
:1071600080B586B000AFF860B9607A6000237B61BB
:1071700009E07B69BA68134400211846FFF7D6FF7F
:107180007B6901337B617A697B689A42F1DB7B68BA
:1071900018461837BD4680BD80B500AFFFF742FFE7
:1071A00000BF80BD80B582B000AF78603960FFF766
:1071B00075FF002318460837BD4680BD80B582B0F4
:1071C00000AF78603960FFF7E7FF00231846083703
:1071D000BD4680BD80B483B000AF786039600123C4
:1071E00018460C37BD465DF8047B704780B500AF8C
:1071F000FFF70AFF0C48F9F743F9FFF7CDFF0B49FA
:107200000B4806F071FC82210A4806F06DFC012152
:107210000120F8F76DFF084806F066FC00F0FEF963
:107220000346184680BD00BF74ED0202FCEA02026C
:1072300008EB020214EB020220EB020280B584B0DC
:1072400000AF78607968094806F04EFC084B1A6870
:107250007B68033323F003031946104605F0CCFA8C
:10726000F860FB6818461037BD4680BD2CEB020263
:10727000741F002080B584B000AF7860074B1B6896
:107280007968184605F0A9FCF860F968044806F02A
:107290002BFC00BF1037BD4680BD00BF741F00200F
:1072A00040EB020280B588B002AFF860B9607A6046
:1072B0000420FFF7C3FF7861094806F015FCF86861
:1072C00004F0EAFEBB681B6800937B697A680221C0
:1072D00003F0B2FE7B6918461837BD4680BD00BF7B
:1072E00050EB020280B584B000AF78607B68FB6031
:1072F000054806F0F9FBFB681B68184603F008FF19
:1073000000BF1037BD4680BD60EB020280B584B07F
:1073100000AF78607B68FB60054806F0E5FBFB6822
:107320001B68184603F052FF00BF1037BD4680BDF2
:1073300070EB020280B584B000AF78607B68FB60C0
:10734000074806F0D1FBFB681B68184603F09AFF5C
:10735000F868FFF78FFF00BF1037BD4680BD00BF44
:1073600080EB020280B58CB000AFF860B9607A6043
:107370003B6007F1100300221A605A609A60DA60DD
:107380001A615A619A61BB683B6197F83830002BEB
:1073900001D1072300E00423BB827B68BB613B680B
:1073A000073323F007033B62FB687B6239680848B8
:1073B00006F09AFB07F1100207F12C03114618465C
:1073C00004F056FBFB6A18463037BD4680BD00BF4F
:1073D00090EB020280B586B002AF78603960082079
:1073E000FFF72CFFF860FB683A685A60084806F01F
:1073F0007BFB7B6899B2FA683B689BB200930023E1
:10740000044801F08DFFFB6818461037BD4680BD6B
:10741000A8EB0202B8EB020280B584B000AF78603E
:1074200039607B68FB600C4806F05EFBFB681868FF
:10743000FB685B681A464FF0FF33396802F0A8F921
:107440000346BB60BB68002B14BF01230023DBB2E3
:1074500018461037BD4680BDBCEB020280B586B031
:1074600000AF786039607B687B617B695B68FB603B
:107470000B4806F039FB7B69186807F10C024FF0E6
:10748000FF33396802F062F903463B613B69002B28
:1074900014BF01230023DBB218461837BD4680BD58
:1074A000CCEB020280B582B000AF0C20FFF7C6FE25
:1074B00078607968054806F017FB786801F03AFBB8
:1074C0007B6818460837BD4680BD00BFDCEB020272
:1074D00080B584B000AF78607B68FB60F9680B48CA
:1074E00006F002FB4FF0FF3303220121F86801F0A0
:1074F000C9FBB860BB68012B01D1002302E0BB6867
:1075000043F0010318461037BD4680BDF0EB020280
:1075100080B582B000AF78607968054806F0E4FA7B
:107520000121786801F034FC00BF0837BD4680BDFA
:1075300000EC020298B500AF0B4B1B68092B03D976
:10754000AF210A48F8F708FF074B1C6805F0F9FF60
:107550000346074A42F82430034B1B680133024AB2
:10756000136000BF98BD00BF981D002010EC020200
:10757000701D002080B500AF0B4B1B68013B0A4A11
:107580001360094B1B68002B03DAB8210748F8F792
:10759000E3FE054B1B68064A52F82330184605F0F7
:1075A000D8FF00BF80BD00BF981D002010EC020274
:1075B000701D002080B582B000AF05F0C2FF78607A
:1075C0000E4B1B6801330D4A13600C4B1B6803F014
:1075D0000103002B04D00121242000F089FB03E0EB
:1075E0000021242000F084FB04F00CFC786805F0F6
:1075F000B0FF00BF0837BD4680BD00BFA01D002002
:1076000080B500AF044806F06FFA00F0FBFA01F015
:1076100073FC00BF80BD00BF24EC020280B500AF48
:1076200001F071FC044806F05FFA044803F0B6FF6D
:10763000034B184680BD00BF30EC02022D780202D9
:10764000DCED02022DE9B04F86B000AF78607B68B8
:10765000002B1CD005F075FF786104F0F9FBC7E939
:1076600002017B68002298469146D7E9022318EB75
:10767000020449EB030514F1FF3A45F1FF3B504684
:10768000594604F09FFB786905F063FF00E000BFF6
:107690001837BD46BDE8B08F80B584B000AF05F0A7
:1076A00050FFF86002F04CFDB86003F0E3FB786037
:1076B0007A68BB68934228BF13463B60F86805F0C0
:1076C00048FF3B6818461037BD4680BD80B588B07E
:1076D00000AF7860514B1B68504A23F001031360E0
:1076E0004F4B1A687B68013B5B011344BB6100F0A0
:1076F00091FD0346DB0B2D22B2FBF3F3BA699A42EC
:1077000009D900F087FD0346DB0B2D22B2FBF3F312
:10771000BA69D31ABB6105F014FF3861414ABB69ED
:1077200013603F4B00221A603C4B1B683B4A43F0FE
:10773000010313603C4B1B78002B04D000BF384B77
:107740001B68002BFBD0F8F7F8FDF8F7F3FD38695C
:1077500005F0FFFE05F0F5FE3861334B1B78002B7A
:1077600006D000BF2E4B1A682D4B1B689A42F9D0E9
:107770002A4B02221A60294B1B6803F48033002B2A
:107780001BD0274B1A68BB69D31A1F337B6100F0EB
:1077900041FD0346DB0B2D22B2FBF3F37A699A42DB
:1077A00002D37B69202B01D91F237B611D4A7B6992
:1077B00013607B68013BFB6111E07B685A01184B49
:1077C0001B68D31AFB60FB685B09FB61FB69013333
:1077D0005A011449FB68D31A0B6002F033FF104BB7
:1077E00000221A600D4B1B680C4A43F00103136022
:1077F000F869FFF727FF0C4B1B78002B04D000BF64
:10780000074B1B68002BFBD0064B1F221A60386900
:1078100005F09FFE00BF2037BD4680BD10E000E0B0
:1078200018E000E014E000E09C1D002080B582B06C
:1078300000AF05F086FE3860FFF72EFF78607B68AA
:10784000012B1BD97B68124A934201D9114B7B60F3
:107850007868F8F775FD78607B68012B05D8386883
:1078600005F077FE30BF00BF0EE0386805F071FE0E
:107870007868FFF72BFFF8F755FD04E0386805F04E
:1078800068FE30BF00BF00BF0837BD4680BD00BFE7
:10789000FEFF0700FFFF070080B483B000AF7860F1
:1078A0007B681B7818460C37BD465DF8047B704733
:1078B00080B483B000AF78607B68043318460C371F
:1078C000BD465DF8047B704780B483B000AF78603C
:1078D0007B6802331B7818460C37BD465DF8047B85
:1078E000704780B483B000AF78607B6803331B8837
:1078F00018460C37BD465DF8047B704780B483B0F2
:1079000000AF78607B6802331B7818460C37BD46A1
:107910005DF8047B704780B485B000AF7B600346A0
:10792000FB810B46BB8113467B810023184614372D
:10793000BD465DF8047B704790B482B000AF04464A
:10794000084611461A462346FB800346BB800B4679
:107950007B8013463B80002318460837BD4690BC09
:10796000704780B485B000AFF860B9601346FB8003
:1079700000BF1437BD465DF8047B704780B58CB0FE
:107980000CAF00230A9300230993012308930023DB
:1079900007930123069300230593002304930023F8
:1079A00003930023029301230193072300934FF4D1
:1079B00048734FF4487213210020DFF7EDFE094AA7
:1079C00010210020DFF7A4FE074A01210020DFF785
:1079D0009FFF064A01210120DFF7A6FE00BFBD463A
:1079E00080BD00BF28EE020238EE020240EE020225
:1079F00080B586B000AFBA601A460346FB730B46EB
:107A0000BB811346FB80B868FFF746FF0346FB7552
:107A1000FB7B042B4DD1FB7DFF2B3CD0FF2B4ADCA5
:107A2000B72B4AD0B72B46DC602B0AD0602B42DC48
:107A30003E2B18D03E2B3EDC052B26D00E2B0DD036
:107A400039E0B868FFF75AFF0346022B37D11E49C9
:107A50000020DFF751FDFFF791FF31E0B868FFF735
:107A600040FF00BF2CE0B868FFF72EFF03460A2B4B
:107A700009D1BB680333B3F801309BB213491846F0
:107A8000DEF79BF900E000BF1AE0114A0121012056
:107A9000DFF74AFE14E0B868FFF70AFF38613B6978
:107AA00018683B6959683B691B891A46FFF759FFFB
:107AB00006E000BF04E000BF02E000BF00E000BF3E
:107AC0001837BD4680BD00BF48EE02023CEE020200
:107AD00040EE020280B582B000AF7860396000F0FD
:107AE00037FC0A48F8F72EFC09490A48DEF794F8F3
:107AF000094B0A4A5A600848E2F73EFB0748DEF79E
:107B000035F9002318460837BD4680BD40EC020217
:107B10003979020217790202A41D0020F1790202CC
:107B200080B500AF054805F0DFFF054805F0DCFF34
:107B30004FF4FA6004F0CAF8F7E700BF50EC020215
:107B400064EC020280B500AF054805F0CDFF0548A2
:107B500005F0CAFF4FF4FA6004F0B8F8F7E700BF89
:107B600084EC020298EC020280B58AB000AF3B467A
:107B700000221A605A609A60DA601A615A619A614A
:107B80001A4B3B604FF480633B61194B7B610823C8
:107B9000BB803A4607F120031146184603F068FF00
:107BA00003467B627B6A002B03D0796A114805F09B
:107BB0009BFF114B3B604FF480633B610F4B7B613C
:107BC0000923BB803A4607F11C031146184603F00F
:107BD0004FFF03467B627B6A002B03D0796A08481B
:107BE00005F082FF00BF2837BD4680BD457B0202FD
:107BF000B8EC0202CCEC0202217B0202E4EC0202AD
:107C0000F8EC020280B500AFFFF7AEFF00BF80BD09
:107C100080B485B000AF78600B46FB701346BB7034
:107C2000FB78012202FA03F3FB607B681A68FB68A9
:107C3000DB431340B978FA7801FA02F21A437B6801
:107C40001A6000BF1437BD465DF8047B7047000022
:107C500080B584B000AF03460A46FB711346BB7182
:107C6000FB79142B01D9204B00E0204BFB60FB7902
:107C7000142B02D9FB79153B00E0FB79BB60BB7983
:107C8000032B1CD0FB6803F12800BB68D9B2BB7979
:107C9000002B14BF01230023DBB21A46FFF7B8FF05
:107CA000FB6803F13400BB68D9B2BB79002B0CBF71
:107CB00001230023DBB21A46FFF7AAFF0FE0FB689F
:107CC0002833BA68D1B200221846FFF7A1FFFB683B
:107CD0003433BA68D1B200221846FFF799FF00BFCB
:107CE0001037BD4680BD00BF00600140005001401C
:107CF00080B485B000AF03460A46FB711346BB71E2
:107D0000FB79142B01D9144B00E0144BFB60FB7979
:107D1000142B02D9FB79153B00E0FB79BB60BB79E2
:107D2000002B09D0FB681B6B0121BA6801FA02F233
:107D30001A43FB681A6308E0FB68DB6A0121BA6832
:107D400001FA02F21A43FB68DA6200BF1437BD463B
:107D50005DF8047B704700BF0060014000500140A7
:107D600080B487B000AFF860B96011461A460B4680
:107D7000FB711346BB71FB79012202FA03F35A1E11
:107D8000BB7902FA03F37B61FB681A687B69DB430A
:107D90001A40BB79B96801FA03F31A43FB681A6009
:107DA00000BF1C37BD465DF8047B704780B485B0CA
:107DB00000AF78600B46FB701346BB70BB780122A6
:107DC00002FA03F3FB607B681A68FB68DB4313402D
:107DD000F978BA7801FA02F21A437B681A6000BF98
:107DE0001437BD465DF8047B7047000080B582B053
:107DF00000AF03460A46FB711346BB71FB79182B93
:107E000000F26F8101A252F823F000BF717E0202DE
:107E10008B7E0202A57E0202BF7E0202D97E020292
:107E2000F37E02020D7F0202277F0202417F0202DF
:107E30005B7F0202817F0202A77F0202C17F0202F2
:107E4000E77F0202018002021B80020235800202EB
:107E50004F8002026980020277800202858002025E
:107E600093800202A1800202BB800202D58002023E
:107E7000BB79152219469D48FFF798FFBB7912225E
:107E800019469B48FFF792FF2CE1BB791622194651
:107E90009648FFF78BFFBB79122219469448FFF7EB
:107EA00085FF1FE1BB79022219469048FFF77EFF4C
:107EB000BB79002219468E48FFF778FF12E1BB79A3
:107EC000032219468948FFF771FFBB790122194641
:107ED0008748FFF76BFF05E1BB7904221946834809
:107EE000FFF764FFBB79022219468148FFF75EFF66
:107EF000F8E0BB79012219467C48FFF757FFBB79B0
:107F0000112219467A48FFF751FFEBE0BB790522B1
:107F100019467648FFF74AFFBB790A22194674488A
:107F2000FFF744FFDEE0BB79082219466F48FFF7F0
:107F30003DFFBB79092219466D48FFF737FFD1E0B5
:107F4000BB79092219466948FFF730FFBB790C223B
:107F500019466848FFF72AFFC4E0BB790A22194690
:107F60006248FFF723FFBB79132219466048FFF7E9
:107F70001DFFBB79142219465D48FFF717FFB1E0DA
:107F8000BB790B2219465948FFF710FFBB790B222A
:107F900019465748FFF70AFFBB7910221946544883
:107FA000FFF704FF9EE0BB790C2219464F48FFF70C
:107FB000FDFEBB79002219464F48FFF7F7FE91E01E
:107FC000BB790C2219464C48FFF7F0FEBB790D2215
:107FD00019464648FFF7EAFEBB790622194644488F
:107FE000FFF7E4FE7EE0BB790E2219463F48FFF71B
:107FF000DDFEBB79072219463D48FFF7D7FE71E049
:10800000BB790F2219463948FFF7D0FEBB790C2205
:1080100019463748FFF7CAFE64E0BB7910221946BB
:108020003248FFF7C3FEBB79082219463048FFF7F4
:10803000BDFE57E0BB79112219462C48FFF7B6FE6A
:10804000BB79042219462A48FFF7B0FE4AE0BB7903
:10805000122219462548FFF7A9FEBB7905221946C9
:108060002348FFF7A3FE3DE0BB79132219461F48C2
:10807000FFF79CFE36E0BB79142219461B48FFF738
:1080800095FE2FE0BB79002219461848FFF78EFEB7
:1080900028E0BB79062219461448FFF787FE21E045
:1080A000BB79172219461148FFF780FEBB790E22D3
:1080B00019460F48FFF77AFE14E0BB7905221946EE
:1080C0000E48FFF773FEBB79072219460B48FFF7EE
:1080D0006DFE07E0BB79192219460448FFF766FEDA
:1080E00000E000BF00BF0837BD4680BD0C00004067
:1080F0001400004054000040080000408000004090
:1081000080B582B000AF0346FB71FB7901211846B0
:10811000FFF76CFE00BF0837BD4680BD80B584B058
:1081200000AF78600023FB730FE0FB7B012202FAB3
:1081300003F31A467B681340002B03D0FB7B1846E1
:10814000FFF7DEFFFB7B0133FB73FB7B182BECD9C6
:1081500000BF00BF1037BD4680BD000080B483B0B3
:1081600000AF244B1B681B0ADBB203F00103FB7159
:10817000FB79002B01D0204B35E0204B1B681B0BFB
:1081800003F01F030F2B2DD801A252F823F000BFDC
:10819000D1810202D5810202E5810202D981020267
:1081A000E5810202E5810202E5810202DD8102022F
:1081B000E5810202E5810202E5810202E581020217
:1081C000E5810202E5810202E5810202E18102020B
:1081D0000B4B08E00B4B06E0074B04E00A4B02E0B8
:1081E0000A4B00E00A4B18460C37BD465DF8047B8D
:1081F000704700BF1020104000366E017C01104017
:1082000000127A000024F4000048E801006CDC024F
:108210000090D0032DE9B04F86B000AF214B1B6812
:1082200003F48013002B36D04FF080431B6C5B08A7
:1082300003F03F034FF08042126CD20B02F03F027A
:1082400002FB03F37B61FFF789FF034600229A4696
:1082500093464FF080431B6CDB090022BB60FA6041
:10826000BB6803F0FF04002504FB0BF20AFB05F3D7
:108270001344AAFB04894B4499467B6900223B6066
:108280007A60D7E900234046494606F06BFA024679
:108290000B46134600E0002318461837BD46BDE8DC
:1082A000B08F00BFA801104080B582B000AF034678
:1082B000FB71FB7903F00F01012304220348FFF750
:1082C0004FFD00BF0837BD4680BD00BF00201040F5
:1082D00080B582B000AF78600B46FB701346BB7070
:1082E000FB78002B05D07B68012200211846FFF7A0
:1082F0005DFDF978BB7801220A48FFF731FDFB7874
:10830000002B0AD17B6858331A46074B13607B68F1
:10831000012201211846FFF749FD00BF0837BD467D
:1083200080BD00BF280000400400008080B582B0FE
:1083300000AF0346FB71FB79012219460348FFF7A2
:10834000C7FF00BF0837BD4680BD00BF0000144016
:1083500080B582B000AF00F041FB38603B68002B75
:1083600001D101234FE03B681B7819460423072203
:108370002748FFF7F5FC14230C2240F2EE21254894
:10838000FFF7EEFC00237B6013E03A687B685B003C
:1083900013449B889BB240F2A542934206D9796868
:1083A0001C2304221C48FFF7DBFC05E07B6801333B
:1083B0007B607B680F2BE8D97B680F2B01D90223E8
:1083C00021E001237B6015E03A687B6810335B0095
:1083D00013449B889BB240F29C42934207D97B682E
:1083E000DBB2013BDBB21846FFF75EFF05E07B68BE
:1083F00001337B607B680F2BE6D97B680F2B01D99B
:10840000032300E0002318460837BD4680BD00BFA7
:10841000082010401C0000400020104080B483B0B1
:1084200000AF78607B689B695B09DBB203F00103F6
:10843000DBB218460C37BD465DF8047B704780B44C
:1084400083B000AF78600B46FB70FA787B681A60E7
:1084500000BF0C37BD465DF8047B704780B586B021
:1084600000AFF860B9607A603B603B68C3F5805349
:108470007B617A697B689A420BDB3B68FA6813443C
:108480007A68B968184605F0F6FB3A687B681344C9
:1084900014E03B68FA6813447A69B968184605F035
:1084A000EAFB7A687B69D31A7B607B69BA681344FC
:1084B0007A681946F86805F0DEFB7B6818461837BD
:1084C000BD4680BD80B582B000AF7860F7F7F0FEA2
:1084D00003469B6A7A6802F5805292681046984774
:1084E00000BF0837BD4680BD80B584B000AF78605E
:1084F0003960394B5B68C3F30803002B0CBF0123C1
:108500000023DBB27B737B7B002B04D0F7F7D0FE1C
:1085100003465B6B98473B6803F580531B887B8160
:108520003B6803F580535A883B6803F580531B88EA
:10853000D31A9BB2FB81B7F90E30002B04DCFB8908
:1085400003F580539BB2FB81B7F90E30002B05DD9C
:10855000B7F90E309BB2013B9BB2FB817B681B8954
:108560001A467B685B891A44B7F90E309A4222DCBE
:1085700038687B6819687B681B891A467B89FFF716
:108580006DFF03469BB2C3F30B037B8138687B68A6
:1085900059687B685B891A467B89FFF75FFF034652
:1085A0009BB2C3F30B037B813B6803F580531A46F0
:1085B0007B89138000E000BF7B7B002B04D0F7F7A2
:1085C00077FE03469B6B98473868FFF77BFF0023D5
:1085D00018461037BD4680BD00ED00E080B584B080
:1085E00000AF78604FF0FF33FB6007F10C0304220B
:1085F0001946786800F005F8034618461037BD465E
:1086000080BD80B584B000AFF860B9607A6043F691
:108610009B337A68B968F86898470346184610375C
:10862000BD4680BD80B58AB000AFF860B9607A60A1
:10863000FB6823F0FF0303F580737B6200233B623A
:1086400014E0FA683B6A13441A78B9683B6A0B4431
:108650001B781340DAB2B9683B6A0B441B789A4224
:1086600001D0012340E03B6A01333B623A6A7B68F8
:108670009A42E6D3EFF310837B617B69BB6172B6EC
:1086800000BF40F2C97398471FE07A6AFB68D31AAB
:10869000FB61FA697B689A4201D37B68FB6143F610
:1086A000D743FA69B968F8689847FA68FB691344D0
:1086B000FB60BA68FB691344BB607A68FB69D31A34
:1086C0007B607B6A03F580737B627B68002BDCD167
:1086D00040F25163984740F60D039847BB69002B61
:1086E00001D162B600BF002318462837BD4680BDC1
:1086F00080B586B000AFF860B9607A607A68B96812
:10870000F868FFF78FFF78617B69002B01D07B69E8
:108710000DE0FB687A68B968184605F03AFA034636
:10872000002B01D1002300E002237B617B69184606
:108730001837BD4680BD01F10101084700BF18464A
:1087400080B586B000AF786039604822114938683A
:1087500005F091FAEFF31083FB60FB687B6172B662
:1087600000BF40F2C97398473B6819467868FFF725
:10877000E2FF386140F25163984740F60D03984795
:108780007B69002B01D162B600BF3B6918461837E0
:10879000BD4680BD50EE020280B596B000AF786055
:1087A00007F10803B3F1804F07D207F10803194618
:1087B0007868FFF7C5FF03460DE0094B7B65012094
:1087C000FFF7B4FD796D7868FFF7BAFF38650020D0
:1087D000FFF7ACFD3B6D18465837BD4680BD00BF66
:1087E0000000012080B485B000AF786039600023BC
:1087F000FB6006E07B681A1D7A601B68FA68134408
:10880000FB603B685A1E3A60002BF3D1FB681846A8
:108810001437BD465DF8047B7047000080B500AF9B
:1088200092210348FFF7DEFF0346184680BD00BFD4
:108830000010000280B400AF034B1B681846BD4611
:108840005DF8047B704700BF4B12000280B582B018
:1088500000AFFFF7E3FF03467B603B1D0422194690
:108860000348FFF745FF00BF0837BD4680BD00BF86
:108870004B12000290B583B000AF0E4B7B607B685B
:108880001B680D4A934204D17B685B680B4A934294
:1088900001D000230AE0FFF7CDFF0446FFF7BEFF3B
:1088A00003469C4201D0002300E0012318460C3708
:1088B000BD4690BD0010000243474E495350494801
:1088C00080B596B000AFF860B9607A6028E0002308
:1088D0007B6512E0B868FFF75FFF02467B6D9B0087
:1088E00058333B4443F8442C7B6D01337B657B68F4
:1088F000013B7B60BB680433BB607B68002B02DDFF
:108900007B6D0F2BE6D97B6D9A0007F11403194696
:10891000F868FFF7EDFE7B6D9B00FA681344FB607F
:108920007B68002BD3DC00BF00BF5837BD4680BD3D
:1089300080B582B000AFFFF79DFF0346002B01D04A
:1089400000233DE04FF48050FFF726FF78607B68FE
:108950001D4A934201D0012332E041F20400FFF7A7
:108960001BFF78607B68194A934201D0022327E0FD
:10897000BA1CFB1C1146184600F03EF800210020EE
:1089800000F06FF81248FFF729FE1E224FF48051C5
:108990000F48FFF795FF24224FF488510D48FFF749
:1089A0008FFF50224FF400510B48FFF789FFFFF76C
:1089B0004DFFFB78BA781146184600F052F80023B4
:1089C00018460837BD4680BD43474E495350494875
:1089D00000100002781000020811000280B500AFFC
:1089E000FFF7A6FF0346002B01D1024B00E0002356
:1089F000184680BD7810000280B586B000AF786060
:108A00003960EFF31083FB60FB687B6172B600BFD7
:108A100040F2C973984740F64D03984703467B825E
:108A20007B8A9B0B9BB2DBB203F00103DAB23B689B
:108A30001A707B8A9B089BB2DBB203F01F03DAB289
:108A40007B681A7040F25163984740F60D039847CF
:108A50007B69002B01D162B600BF00BF1837BD464D
:108A600080BD80B586B000AF03460A46FB71134651
:108A7000BB71EFF31083FB60FB687B6172B600BFD4
:108A800040F2C973984740F64D03984703467B82EE
:108A90007B8A3B827B8A23F4804323F07C037B82A6
:108AA000BB791BB29B031AB2FB791BB29B001BB2B2
:108AB00013431AB2B7F9123013431BB27B823A8ABE
:108AC0007B8A9A4204D07B8A40F60132184690474E
:108AD00040F25163984740F60D0398477B69002B9D
:108AE00001D162B600BF00BF1837BD4680BD80B45B
:108AF00083B000AF78607B687A685A607B687A6878
:108B00001A6000BF0C37BD465DF8047B704780B427
:108B100083B000AF78607B685B687A689A420CBF6C
:108B200001230023DBB218460C37BD465DF8047BF9
:108B30007047000080B582B000AF78607B68002B82
:108B400001D1074B08E07B6800221A607B68043380
:108B50001846FFF7CCFF002318460837BD4680BDF6
:108B6000061C000280B586B000AFF860B9607A607C
:108B700000237B61FB68002B01D11E4B35E004F024
:108B8000E0FC38617B6803F00203002B0BD0FB682C
:108B90001A68BB681340002B14D0FB681B68BA68C6
:108BA00013407B610EE0BB68002B0BD0FB681A689A
:108BB000BB681340BA689A4204D1FB681B68BA6864
:108BC00013407B617B69002B0BD07B6803F00103B2
:108BD000002B06D0FB681A687B69DB431A40FB68F0
:108BE0001A60386904F0B5FC7B6918461837BD4631
:108BF00080BD00BF061C000280B485B000AFF860E5
:108C0000B9607A60FB68002B01D1194B2AE0FB6840
:108C10009B68002B03D0FB685B68002B01D1154BD0
:108C200020E0BB68002B01D1134B1BE0BB6803F0B5
:108C30000073002B01D0114B14E07B6803F002039A
:108C4000002B04D07B6803F00403002B07D17B6862
:108C5000072B04D87B6803F00603002B01D1084BD7
:108C600000E0002318461437BD465DF8047B7047CA
:108C7000061C0002071C0002021C0002001C00026D
:108C8000041C000280B588B000AFF860B9607A605B
:108C90003B6000237B617A68B968F868FFF7ACFF36
:108CA000F861FB69002B01D0FB6961E004F094FAE4
:108CB0000346002B01D0304B5AE0304B1B689B8899
:108CC00003F48053002B01D02D4B51E004F039FC0C
:108CD000B861FB687A68B9681846FFF743FFF86126
:108CE000FB69002B40D13B68002B04D1B86904F02C
:108CF00030FCFB693CE0234B1B88002B04D0B86997
:108D000004F027FC204B33E01C4B1B687B617B6924
:108D1000BA681A677B697A685A67FB6804333968EE
:108D2000184601F08DF9B86904F013FC01F08AFCD3
:108D300004F007FCB8617B699B8803F04003002BBB
:108D40000BD07B699B8823F040039AB27B699A80A1
:108D5000B86904F0FEFB0D4B0AE0FB687A68B9685D
:108D60001846FFF7FFFEF861B86904F0F2FBFB69F3
:108D700018462037BD4680BD031C0002181F002086
:108D8000091C0002201F0020051C0002011C00021B
:108D900080B586B000AF7860396000237B61002326
:108DA000FB600023FB747B68002B01D1334B61E037
:108DB0007B689B68002B03D07B685B68002B01D12C
:108DC0002F4B57E03B6803F00073002B01D02D4B75
:108DD00050E004F0B6FBB8607B681A683B681A4341
:108DE0007B681A607B6804331846FFF790FE0346E1
:108DF000002B3BD17B689B68483B7B6125E07B690E
:108E0000DB6C483BFB607B695B6F03F00203002B6C
:108E100005D07B691A6F3B681340002B0ED17B692C
:108E20005B6F03F00403002B0DD07B691A6F7B6826
:108E30001B681A407B691B6F9A4204D10123FB74A3
:108E4000786901F027F9FB687B617B6903F14802CF
:108E50007B6804339A42D2D1FB7C012B06D1B868DF
:108E600004F077FB01F0EEFB002303E0B86804F0A8
:108E700070FB002318461837BD4680BD061C000253
:108E8000071C0002001C000280B584B000AF7860AF
:108E90007B68002B01D1104B19E004F052FBF86005
:108EA0007B6804331846FFF732FE0346002B04D1DB
:108EB000F86804F04EFB094B09E07B6800229A60D9
:108EC0007B6800225A60F86804F043FB00231846D0
:108ED0001037BD4680BD00BF061C0002081C000202
:108EE0000FB480B582B000AF07F114037B6002209D
:108EF00004F082F903F0DEFE80B500AF03F0EEFF70
:108F00000346184680BD80B582B000AF03F0BAFEBC
:108F100078607B68002B01D07B6838E003F004F8B0
:108F200078607B68002B01D07B6830E002F05EFB4C
:108F300078607B68002B01D07B6828E001F0C6FBDD
:108F400078607B68002B01D07B6820E000F05CF843
:108F500078607B68002B01D07B6818E000F0FEF899
:108F600078607B68002B01D07B6810E001F0BCFFCB
:108F700078607B68002B01D07B6808E002F0B4FBCE
:108F800078607B68002B01D07B6800E000231846E6
:108F90000837BD4680BD80B483B000AF78607B6881
:108FA0007A685A607B687A681A6000BF0C37BD46E1
:108FB0005DF8047B704780B483B000AF786039609F
:108FC0007B685A683B685A603B687A681A607B68BD
:108FD0005B683A681A607B683A685A6000BF0C3771
:108FE000BD465DF8047B704780B582B000AF786005
:108FF00039607B681B6839681846FFF7DCFF00BFE3
:109000000837BD4680BD000080B582B000AF0023A8
:109010003B601C48FFF7BFFF1B4B1B6878211846BD
:1090200003F0EAFB0346194A1360184B1B68002B38
:1090300001D1174B21E000237B601AE0134B196824
:109040007A6813465B001344DB000B443B603B68CB
:109050007A685A603B6800221A613B6800221A70E5
:109060003B68083319460748FFF7BEFF7B680133AA
:109070007B607B68042BE1D9002318460837BD4686
:1090800080BD00BFB01D0020741F0020AC1D00205B
:10909000001D000280B483B000AF78607B687A68FE
:1090A0005A607B687A681A6000BF0C37BD465DF86D
:1090B000047B704780B483B000AF786039607B6810
:1090C0005A683B685A603B687A681A607B685B68DC
:1090D0003A681A607B683A685A6000BF0C37BD4630
:1090E0005DF8047B704780B582B000AF786039606E
:1090F0007B681B6839681846FFF7DCFF00BF08373C
:10910000BD4680BD80B483B000AF78607B685B688B
:109110007A6812681A607B681B687A6852685A60BD
:109120007B6800225A607B6800221A6000BF0C37FF
:10913000BD465DF8047B704780B483B000AF7860B3
:109140007B685B687A689A420CBF01230023DBB21C
:1091500018460C37BD465DF8047B704780B582B079
:1091600000AF00233B601C4B1B68F021184603F046
:1091700043FB0346194A1360184B1B68002B01D1AF
:10918000174B25E0154B1868F0230022F02104F05E
:1091900049F91448FFF77EFF0023FB8014E00F4BD2
:1091A0001968FA8813465B0013441B010B443B60AB
:1091B0003B68FA88DA813B68203319460948FFF793
:1091C00092FFFB880133FB80FB88042BE7D9002347
:1091D00018460837BD4680BD741F0020B81D00200A
:1091E00001060002BC1D002080B58AB000AFF86007
:1091F0007A603B600B467B8100237B6200233B62ED
:109200000023FB617B68002B01D13E4B75E0BB8ED8
:109210004FF6FB72934201D93B4B6EE07B89002BEA
:1092200002D0BB8E002B01D1384B66E0BB8E0433DD
:109230007B830023002B01D0334B5EE0344B186856
:109240007B897A8B02FB03F3194603F0D5FAF861A8
:10925000FB69002B01D12F4B4FE004F072F97861CC
:109260002D48FFF769FF0346002B0AD0786904F008
:1092700070F9274B1B68F969184603F0AEFC274BC1
:109280003BE0254B5B683B62386AFFF73BFF3B6A7C
:10929000203B7B627B6AFA685A607B6A7A895A81D2
:1092A0007B6A7A8B9A817B6AFA691A607B6A0122EF
:1092B0001A817B6A00229A827B6A7A89DA827B6AC7
:1092C00000221A827B6A00225A827B6A183318466F
:1092D000FFF7E0FE7B6A20331846FFF7DBFE7B6A70
:1092E00028331846FFF7D6FE786904F032F97B6A16
:1092F000DB891A467B681A60002318462837BD466A
:1093000080BD00BF0C060002030600020D0600022D
:10931000741F002002060002BC1D0020040600028B
:1093200080B588B002AFF8607A603B600B467B8105
:1093300079893B8C01930023009300237A68F868B5
:10934000FFF752FF78617B6918461837BD4680BD2C
:1093500080B584B000AFF860B9607A603B60FB68AC
:10936000042B01D90F4B18E0BB68002B02D07B689F
:10937000002B01D10C4B10E07B681B68002B01D146
:109380000A4B0AE03B68002B06D003F025FF03469A
:10939000002B01D0064B00E0002318461037BD46D5
:1093A00080BD00BF0E0600020F060002100600027C
:1093B0001806000280B584B000AFF860B9607A602A
:1093C0003B60FB68042B01D90D4B15E0BB68002BFB
:1093D00001D10C4B10E07B681B68002B01D10A4BBC
:1093E0000AE03B68002B06D003F0F6FE0346002B94
:1093F00001D0064B00E0002318461037BD4680BD63
:109400000E06000212060002130600020906000200
:1094100080B588B000AFF860B9607A603B60002327
:10942000BB61BB6803F00303032B31D0032B00F2B5
:109430009880002B02D0012B15D092E0FB681B8A8C
:10944000FB83FB681B8A0133FA685289934203D17C
:10945000FB6800221A8230E0FB681B8A01339AB253
:10946000FB681A8229E0FB681B8A002B06D1FB6887
:109470005B89013B9AB2FB681A8205E0FB681B8A94
:10948000013B9AB2FB681A82FB681B8AFB8314E0DB
:10949000FB685B8AFB83FB685B8A0133FA6852894D
:1094A000934203D1FB6800225A8205E0FB685B8A85
:1094B00001339AB2FB685A8200BFFB681B68FA8BC3
:1094C000F968898901FB02F21344BB61BB6803F0B0
:1094D0000403002B0ED0BB6803F00103002B04D162
:1094E000BB691A687B681A603EE07B681A68BB69D2
:1094F0001A6039E0BB6803F00103002B1CD1FB6844
:109500009B89043BBA6913441B683B613B681B6839
:109510003A69934228BF13463B613B6819683B692F
:10952000BA69786803F0CEFE78617B69002B1AD1A6
:109530003B683A691A6017E0FB689B89043BBA698B
:1095400013443A6812681A60FB689B8919463B68A5
:109550001B687A68B86903F0B5FE78617B69002BF7
:1095600002E000BF00E000BF2037BD4680BD000024
:1095700080B485B000AFF860B9607A60FB681B8981
:10958000002B01D10F4B16E0BB6803F00103002B49
:1095900008D07B681A68FB689B89043B9A4201D912
:1095A000094B08E07B681B686FF00042934201D3CF
:1095B000064B00E0002318461437BD465DF8047BD7
:1095C000704700BF0A0600021506000220060002CE
:1095D00080B58CB000AFF860B9607A603B60002362
:1095E0007B6200233B62BB6803F00103FB61FB6904
:1095F000002B0CBF01230023DBB2BB6103F0A1FFF2
:10960000B862F86800F0E8F878623A68B968786A91
:10961000FFF7AEFFF862FB6A002B40F082807A6AA7
:10962000FB6908335B0013449B88002B37D1BB6B6D
:10963000002B09D1BB6803F00103002B01D13D4B86
:1096400000E03D4BFB626DE03C4B1B88002B02D0E1
:109650003B4BFB6266E03B4B1B687B61FB69033362
:10966000DB007A6A1344B96B184600F0E9FCB86A6B
:1096700003F06FFF00F0E6FF03F063FFB8627B6961
:109680009B8803F04003002B18D07B699B8823F054
:1096900040039AB27B699A802B4BFB6242E07A6A64
:1096A000FB6908335B0013449B88013B99B27A6ADB
:1096B000FB6908335B0013440A469A803B687A686A
:1096C000B968786AFFF7A4FEBB690333DB007A6AE6
:1096D00013441846FFF730FD0346002B11D17A6A78
:1096E000BB690333DB0013445B68483B3B62386A69
:1096F00000F0D0FCB86A03F02CFF00F0A3FF0023B9
:1097000014E07A6ABB6908335B0013449B88013319
:1097100099B27A6ABB6908335B0013440A469A809F
:1097200000E000BFB86A03F014FFFB6A1846303748
:10973000BD4680BD1D06000216060002201F002047
:1097400006060002181F00200706000280B588B038
:1097500002AFF860B9607A603B603B687A68B968CC
:10976000F868FFF7F5FD78617B69002B01D07B6914
:109770000AE000233B613B6800937B68BA68396963
:10978000F868FFF725FF034618461837BD4680BD29
:1097900080B588B002AFF860B9607A603B603A1D6E
:1097A0003B68B968F868FFF705FE78617B69002BB4
:1097B00001D07B690BE003233B613A1D3B680093BA
:1097C0001346BA683969F868FFF702FF034618467E
:1097D0001837BD4680BD000080B483B000AF78600C
:1097E000064B19687A6813465B0013441B010B444F
:1097F00018460C37BD465DF8047B7047B81D002045
:1098000080B483B000AF78607B687A685A607B6808
:109810007A681A6000BF0C37BD465DF8047B70475C
:1098200080B483B000AF786039607B685A683B6869
:109830005A603B687A681A607B685B683A681A60AD
:109840007B683A685A6000BF0C37BD465DF8047B00
:10985000704780B582B000AF786039607B681B6864
:1098600039681846FFF7DCFF00BF0837BD4680BDEA
:1098700080B483B000AF78607B685B687A681268F8
:109880001A607B681B687A6852685A607B6800229D
:109890005A607B6800221A6000BF0C37BD465DF835
:1098A000047B704780B483B000AF78607B685B68EE
:1098B0007A689A420CBF01230023DBB218460C37AA
:1098C000BD465DF8047B704780B582B000AF78601C
:1098D0007B681846FFF7CCFF79684FF0FF324FF0F6
:1098E000FF33C1E9022300BF0837BD4680BD2DE923
:1098F000F04F8DB000AFF861C7E90423FB69FB624C
:10990000FB6A5B68BB62F86AFFF7CCFF0346002B7B
:109910000AD0BB6D00223B607A60D7E900120B468B
:10992000DC431346DD4322E0BB6A7B627B6AD3E9FA
:109930000201BB6D0022BB60FA60D7E90423BE6858
:1099400016EB0208FE6846EB0309804579EB01033C
:109950000AD3BB6D00229A469346D7E904231AEB3B
:1099600002044BEB030502E07B6AD3E90245224681
:109970002B46104619463437BD46BDE8F08F00002F
:1099800090B58BB002AFC7E902017A607B680093A3
:10999000D7E902230E48FFF7AAFFC7E906017B6853
:1099A0000093D7E902230B48FFF7A1FFC7E90401A1
:1099B000D7E90601D7E90423904271EB030401D2F1
:1099C00002460B46104619462437BD4690BD00BFDF
:1099D000F41E0020FC1E002080B500AF02F038FA13
:1099E00002460B461046194680BD000080B400AF09
:1099F000074B1B68002B05D0064B1B88002B01D1A1
:109A0000012300E000231846BD465DF8047B704743
:109A1000401F0020201F002080B483B000AFC7E9A2
:109A200000010B4BD3E90001D7E90023904271EB11
:109A3000030306D306494FF0FF324FF0FF33C1E96D
:109A4000002300BF0C37BD465DF8047B704700BFA4
:109A5000C01C002080B586B000AFF860C7E90023C5
:109A6000FB68D3E90823D7E90001904271EB0303B7
:109A700005D2012003F0C0FB03F063FDFEE7396867
:109A8000FB68D3E908231346CB1A7B61FB681A6B8A
:109A9000094B1B689A4205D0FB689A687B69D21A09
:109AA000FB689A60F968D7E90023C1E9082300BF81
:109AB0001837BD4680BD00BF281F00202DE9B04FDC
:109AC00096B000AF7863C7E90A230023FB64FFF771
:109AD00083FFC7E90E01444B1B681A46D7E90E0104
:109AE000FFF74EFFC7E91001D7E91001D7E90A23B4
:109AF00082428B4115D2D7E91001D7E90A23841A93
:109B000061EB0305394B1B6800229A469346A24538
:109B10007BEB050305D2D7E90A23C7E9102301230C
:109B2000FB64334BD3E90001D7E9102382428B4118
:109B300055D22F4BD3E90001D7E91023B0EB02082F
:109B400061EB0309284B1B6800223B627A62D7E96C
:109B500008120B469845134679EB03033FD3FB6C81
:109B6000002B03D0234A7B6B136003E0214B4FF0A3
:109B7000FF321A60D7E91001D7E90E23841ABC60BE
:109B800061EB0303FB60D7E90234C7E91434164BD9
:109B90001B680022BB61FA61D7E91423D7E90645A7
:109BA00021468A4229468B4108D20F4B1B6800226E
:109BB0003B607A60D7E90034C7E91434D7E914016F
:109BC00002F028F9D7E90E2384183C6141EB030326
:109BD0007B61074BD7E90412C3E9001200E000BF24
:109BE0005837BD46BDE8B08FE41E0020E01E0020BF
:109BF000C01C0020D01E00202DE9F04B86B000AF25
:109C00000026FE60234E3668BE60234E3668002E66
:109C10003AD0224E3688002E36D1BE68366B344696
:109C20001F4E3668B4421CD0FE68002E19D1BB68A6
:109C30009A681C4B1B689A4202DDBB689B6801E076
:109C4000194B1B687B60BB68D3E908237C68E51768
:109C50002046294612EB000843EB0109C7E90489B5
:109C60000AE01249096800200A4603466FEA020B1F
:109C70006FEA030CC7E904BCBB68196BD7E904237E
:109C80000846FFF71BFF00E000BF1837BD46BDE8E0
:109C9000F08B00BF181F0020401F0020D41E0020A2
:109CA000281F0020DC1E0020D81E0020E41E0020FB
:109CB00080B582B000AF786039603B68DB000E4A47
:109CC00013441846FFF7EEFD0346002B08D04FF073
:109CD00000423B68DA40094B1B681343074A136094
:109CE0003B68DB00044A134479681846FFF798FD87
:109CF00000BF0837BD4680BDCC1D0020CC1E002013
:109D000080B582B000AF786039603B68DB000E4AF6
:109D100013441846FFF7C6FD0346002B08D04FF04A
:109D200000423B68DA40094B1B681343074A136043
:109D30003B68DB00044A134479681846FFF789FD45
:109D400000BF0837BD4680BDCC1D0020CC1E0020C2
:109D500080B582B000AF786039607868FFF788FD21
:109D60003B68DB000B4A13441846FFF79BFD034694
:109D7000002B0AD04FF000423B6822FA03F3DA438B
:109D8000054B1B681340044A136000BF0837BD46EB
:109D900080BD00BFCC1D0020CC1E002080B584B04B
:109DA00000AF786039607B689B88FB81FB8903F09A
:109DB0002803002B28D07B689B8823F0A8039AB245
:109DC0007B689A80FB8903F00803002B11D07B6825
:109DD0009B8843F040039AB27B689A807B68483343
:109DE0001846FFF745FD7B680022DA637B68002296
:109DF0009A63FB8903F00203002B05D1786800F019
:109E000047F83B6801221A6000BF1037BD4680BD8D
:109E100080B586B000AF00233B601C4B1B683B61E4
:109E20003869FFF73FFD0346002B01D03B6829E06E
:109E30003B695B687B61FFF7CFFDC7E9020115E075
:109E40007B69103B7B607B6810331846FFF73CFD55
:109E50003B4619467868FFF7A1FF3869FFF722FDF6
:109E60000346002B0CD13B695B687B617B69D3E9BE
:109E70000223D7E90201904271EB0303E0D200E034
:109E800000BF3B6818461837BD4680BDC81D00207E
:109E900080B582B000AF78607B689B8803F00403D4
:109EA000002B05D0012003F0A7F903F04AFBFEE7E1
:109EB0007B681A6B194B1B689A421CD07B689A68A6
:109EC000174B1B689A4209DD7B6803F148027B68E7
:109ED000DB8819461046FFF7EBFE0CE0114B1A68C1
:109EE0007B689A607B6803F148027B68DB881946CF
:109EF0001046FFF705FF7B689B8823F0AA039AB200
:109F00007B689A807B689B8843F004039AB27B68E5
:109F10009A8000BF0837BD4680BD00BF281F0020C3
:109F2000DC1E0020D81E002080B582B000AF786013
:109F30007B689B8803F00403002B15D07B681A6BA9
:109F40000B4B1B689A4208D07B6803F148027B6880
:109F5000DB8819461046FFF7FBFE7B689B8823F0E1
:109F600004039AB27B689A8000BF0837BD4680BD63
:109F7000281F002080B582B000AF78607B689B8886
:109F800003F00403002B03D07868FFF7CDFF11E046
:109F90007B689B8803F00803002B0BD07B68483359
:109FA0001846FFF765FC7B689B8823F008039AB28C
:109FB0007B689A807B689B8803F0A003002B0BD002
:109FC0007B681033184600F0EDFC7B689B8823F01B
:109FD000A0039AB27B689A807B689B8843F4807365
:109FE0009AB27B689A8000BF0837BD4680BD0000EA
:109FF00080B483B000AF064B1B687B607B68002297
:10A000009A6000BF0C37BD465DF8047B704700BF07
:10A01000181F002080B483B000AF786039607B687F
:10A020009B8843F020039AB27B689A807B683A68E9
:10A03000DA6000BF0C37BD465DF8047B7047000056
:10A0400080B584B000AF78603960114B1B68FB604D
:10A05000FB689B8843F008039AB2FB689A80FB6810
:10A06000483319467868FFF7F4FB3B68B3F1FF3FCC
:10A0700009D0FB689B8843F080039AB2FB689A8002
:10A08000FB683A68DA6000BF1037BD4680BD00BF8C
:10A09000181F002080B582B000AF78607B6848331D
:10A0A0001846FFF7E5FB7B689B8823F008039AB20C
:10A0B0007B689A807B689B8803F08003002B0BD021
:10A0C0007B681033184600F06DFC7B689B8823F09A
:10A0D00080039AB27B689A807B689B8803F00203B6
:10A0E000002B08D17B689B8803F01003002B02D162
:10A0F0007868FFF7CDFE00BF0837BD4680BD80B54C
:10A1000082B000AF78607868FFF7C2FE00BF083702
:10A11000BD4680BD80B483B000AF78607B68002B03
:10A1200002D14FF0FF3303E0044A7B681360002341
:10A1300018460C37BD465DF8047B7047C41D0020EF
:10A1400080B582B000AF03F0FCF97860084B1B6863
:10A15000184600F087FC02460B4613463B607868C1
:10A1600003F0F7F93B6818460837BD4680BD00BFCD
:10A17000C81D00202DE9B04F8AB000AF4D494FF007
:10A18000FF324FF0FF33C1E900234B4B1A684B4BB2
:10A19000A3FB0223DA094A4B1A60494B1B681A4693
:10A1A00092001A4413019A1A464BA3FB02235A0940
:10A1B000454B1A60404B1B6800223B627A62D7E92C
:10A1C00008234FF000004FF00001590141EAD2612D
:10A1D000500102460B46396A541A796A63EB01054D
:10A1E0004FF000024FF00003AB0043EA9473A2006B
:10A1F00014461D46D7E908120B46E3183B61134687
:10A2000045EB03037B614FF000024FF00003D7E9F9
:10A2100004452946CB00214643EA51732146CA0032
:10A2200010461946294A4FF0000304F09BFA0246F3
:10A230000B46274B1A60204B1B680022BB61FA615A
:10A24000D7E9064522462B469118B9605B41FB6071
:10A25000D7E90223214612EB0108294643EB010905
:10A260004FF000024FF000034FEAC90343EA58736E
:10A270004FEAC80290469946234618EB030A2B463C
:10A2800049EB030B1AEB0A033B604BEB0B037B60C0
:10A29000D7E900AB504659460C4A4FF0000304F092
:10A2A00061FA02460B460B4B1A6000BF2837BD46C9
:10A2B000BDE8B08FC01C0020501F0020D34D62109D
:10A2C000E01E00201F85EB51E41E002040420F00DD
:10A2D000D81E0020DC1E002080B582B000AF002315
:10A2E000FB8009E0FB88DB00134A13441846FFF7A4
:10A2F00087FAFB880133FB80FB881F2BF2D90F4BB9
:10A3000000221A60012000F06FFB03460C4A136024
:10A310000B4B1B68002B02D14FF0FF3307E0084BBB
:10A320001B68184600F083FAFFF724FF0023184645
:10A330000837BD4680BD00BFCC1D0020CC1E0020CC
:10A34000C81D002080B483B000AF00237B600F4B9A
:10A350001B68002B0CD00D4B1B68B3FA83F33B60DA
:10A360000B4A3B68DB0013445B68483B7B6006E0BC
:10A37000084B1A68084B1B68DB0113447B607B6841
:10A3800018460C37BD465DF8047B7047CC1E002094
:10A39000CC1D0020141F0020281F00202DE9F043B1
:10A3A00083B000AF03F0CDF8FFF7CCFF78607B6897
:10A3B0009B8843F010039AB27B689A80214A7B689D
:10A3C0005360204B5B681F4A1360FFF705FB024692
:10A3D0000B467968C1E908237868FFF7A5FD7B681B
:10A3E000D3E908231046194601F01EFE7B68D3E925
:10A3F00008231046194600F011FD134B01221A6084
:10A4000012494FF0FF324FF0FF33C1E90023104BE8
:10A410004FF0FF321A607B68186B7B68D3E9082322
:10A4200079688968CE170C46354612EB040843EB71
:10A43000050942464B46FFF741FB00BF0C37BD46BE
:10A44000BDE8F083181F0020401F0020C01C002022
:10A45000D01E00202DE9F04F8BB002AF00237B61AE
:10A46000444B1B683B61FFF7B7FA02460B4638695D
:10A47000FFF7F0FA3B699B8803F0A003002B0DD097
:10A480003B6903F110003B69D3E908233969C968C6
:10A4900001260196009100F02BFA0AE03B699B88A7
:10A4A0001A4640F20B131340002B02D13869FFF714
:10A4B000EFFCFFF747FFF8602E4AFB6853603A69EC
:10A4C000FB689A4215D03B699B8823F010039AB22F
:10A4D0003B699A80FB689B8843F010039AB2FB6843
:10A4E0009A803B69D3E90823F968C1E9082301236D
:10A4F0007B61F868FFF718FDFB681A6B1E4B1B6841
:10A500009A4212D0FB68D3E90823F9688968C81712
:10A510008846814612EB0801396043EB09037B60F2
:10A52000D7E90034C7E906340AE0144B1B6800225F
:10A530001C4615466FEA040A6FEA050BC7E906AB2D
:10A540003B691A6B0E4B1B689A4206D10D494FF0BE
:10A55000FF324FF0FF33C1E90023FB68196BD7E9E5
:10A5600006230846FFF7AAFA7B6918462437BD463A
:10A57000BDE8F08F181F0020281F0020E41E0020D7
:10A58000D01E0020C01C002090B585B000AF264B27
:10A590001B68002B43D002F0D4FFF860FFF71CFAD1
:10A5A000C7E90001214B1B68B3F1FF3F14D1204BD9
:10A5B0001B8801339AB21E4B1A801E4B1B68002B5E
:10A5C00002D01C4B1B689847FFF722FC184B1B88D6
:10A5D000013B9AB2164B1A80174B1968D7E9002332
:10A5E0000846FFF737FA144B1C68FFF7F5F90246E7
:10A5F0000B46C4E9082311494FF0FF324FF0FF33F7
:10A60000C1E900230E4B1B88002B02D102F0A4FFEE
:10A6100001E0FFF7F1FAF86802F09BFF00E000BFED
:10A620001437BD4690BD00BF401F0020D01E002043
:10A63000D41E0020C41D0020181F0020C01C0020B4
:10A64000201F002080B500AFFFF7D0F90346002B94
:10A6500001D002F081FF00BF80BD80B483B000AFA5
:10A6600078607B687A685A607B687A681A6000BF95
:10A670000C37BD465DF8047B704780B483B000AFF3
:10A68000786039607B685A683B685A603B687A68D2
:10A690001A607B685B683A681A607B683A685A603F
:10A6A00000BF0C37BD465DF8047B704780B582B0B3
:10A6B00000AF786039607B681B6839681846FFF71F
:10A6C000DCFF00BF0837BD4680BD000080B582B00A
:10A6D00000AF00233B601948FFF7BFFF184B1B6812
:10A6E0005021184602F088F80346164A1360154BAD
:10A6F0001B68002B01D1144B1BE00023FB8014E0EE
:10A70000104B1A68FB881B0113443B603B68FA88B6
:10A71000DA803B6800221A803B68083319460748F4
:10A72000FFF7C4FFFB880133FB80FB88042BE7D9CC
:10A73000002318460837BD4680BD00BFE81E002034
:10A74000741F0020F01E00200007000280B483B0B8
:10A7500000AF78607B687A685A607B687A681A60B4
:10A7600000BF0C37BD465DF8047B704780B483B0F2
:10A7700000AF786039607B685A683B685A603B6814
:10A780007A681A607B685B683A681A607B683A6826
:10A790005A6000BF0C37BD465DF8047B704780B43B
:10A7A00083B000AF78607B685B687A6812681A6073
:10A7B0007B681B687A6852685A607B6800225A601E
:10A7C0007B6800221A6000BF0C37BD465DF8047B31
:10A7D000704780B483B000AF78607B685B687A684C
:10A7E0009A420CBF01230023DBB218460C37BD464A
:10A7F0005DF8047B704780B582B000AF78607B68FD
:10A800001846FFF7CCFF79684FF0FF324FF0FF3367
:10A81000C1E9022300BF0837BD4680BD80B500AF47
:10A8200001F016FB02460B461046194680BD80B566
:10A8300082B000AF78607B681846FFF787FF00237F
:10A8400018460837BD4680BD80B586B000AF786039
:10A8500039607B683B613869FFF7BBFF0346002B1B
:10A8600005D03B6819463869FFF780FF3DE03B693A
:10A870005B68FB60FB68D3E902233968D1E9020118
:10A88000904271EB030305D23B6819463869FFF724
:10A890006DFF2AE0FB68D3E902013B68D3E902239C
:10A8A000994208BF904207D13B695B683A681146FC
:10A8B0001846FFF75BFF18E03B691B687B617B690B
:10A8C000FB60FB68D3E902233968D1E902019042B9
:10A8D00071EB030305D33B6819467869FFF746FF20
:10A8E00003E07B691B687B61E9E71837BD4680BDE3
:10A8F0002DE9B04F88B000AF7861C7E9022300238B
:10A90000FB6197F84430012B02D1224BFB610CE034
:10A9100097F84430022B02D11F4BFB6105E097F8FA
:10A92000443019461D48FEF7DBFA02F00AFEB86112
:10A930003B6C00229A469346194B1B6800229846AE
:10A94000914608FB0BF20AFB09F31344AAFB0845E6
:10A950002B441D464FF000024FF00003A20A42EACA
:10A960008552AB0AD7E9020114183C604B417B6069
:10A970007B69D7E90012C3E902127969F869FFF728
:10A9800063FFB86902F0E5FD00BF2037BD46BDE8B2
:10A99000B08F00BFF41E0020FC1E002010ED02024C
:10A9A000501F002080B584B000AF786002F0C9FD70
:10A9B000F8607B68D3E90223B3F1FF3F08BFB2F12F
:10A9C000FF3F09D07B68D3E9022310461946FFF701
:10A9D00023F87868FFF70FFFF86802F0BAFD00BFB0
:10A9E0001037BD4680BD000080B483B000AF034681
:10A9F000FB71FB79012B01D1064B05E0FB79022BA2
:10AA000001D1054B00E0002318460C37BD465DF828
:10AA1000047B7047F41E0020FC1E0020B0B485B0FB
:10AA200000AFC7E902017A607B68D3E90223D7E966
:10AA30000201904271EB030304D34FF000044FF086
:10AA4000000507E07B68D3E90201D7E90223841AF5
:10AA500061EB030522462B46104619461437BD46C6
:10AA6000B0BC704780B584B000AF78607B68FB6095
:10AA7000F868FFF7AEFE0346002B04D04FF000024B
:10AA80004FF0000309E0FB685B68BB60FFF7C6FEA0
:10AA9000BA68FFF7C3FF02460B4610461946103747
:10AAA000BD4680BD80B483B000AF78607B685B68D2
:10AAB0007A6812681A607B681B687A6852685A6004
:10AAC0007B6800225A607B6800221A6000BF0C3746
:10AAD000BD465DF8047B704780B483B000AF7860FA
:10AAE0007B685B687A689A420CBF01230023DBB263
:10AAF00018460C37BD465DF8047B704780B582B0C0
:10AB000000AF78607B681846FFF7CCFF79684FF09C
:10AB1000FF324FF0FF33C1E9022300BF0837BD46C3
:10AB200080BD80B500AF01F093F902460B46104698
:10AB3000194680BDB0B58AB000AF00237B620C23FC
:10AB40003B60284B18683A46391D4FF0FF33FEF73B
:10AB5000FDFD38623B6A002BF1D13B680C2BEED136
:10AB60007B68002B3CD0FB68B3F1FF3F38D002F08C
:10AB7000E8FCF8611C4B1868F9681C4BA3FB012327
:10AB80009A0813469B001344CA1A13465B001344E9
:10AB90001B0103447B627B6A9A68FB689A4203D07C
:10ABA000F86902F0D6FC1CE07B6A5B79002B02D1CD
:10ABB000786A00F073F8F86902F0CBFC01F046FA0D
:10ABC000C7E904017B68BA681046984701F03EFA6D
:10ABD000D7E90423841A61EB0305C7E90445AEE70E
:10ABE00000BFACE7041F0020081F0020CDCCCCCC58
:10ABF00080B588B000AF38461C2300221C2102F02B
:10AC000011FC144B3B604FF400633B61124B7B61C2
:10AC10000023BB803B461946104800F029FFF8612D
:10AC2000FB69002B10D10E4B1A680C4B1B68DB0123
:10AC300013449A880A4B1968084B1B68DB010B44C4
:10AC400042F4805292B29A80FB6918462037BD4682
:10AC500080BD00BF35AB02022CED02022C1F00208C
:10AC6000141F002090B587B002AFC7E902017A60D7
:10AC70007B6802221A717B6803F118007B68D3E9B4
:10AC80000A237968C968022401940091FFF730FE15
:10AC9000FEF7B2FF00BF1437BD4690BD80B483B04D
:10ACA00000AF78607B689B6813F1070F05D87B685D
:10ACB0009B685A1D7B689A600BE07B6899680D4B16
:10ACC000A3FB01239A0813469B001344CA1A7B680E
:10ACD0009A60094B1A687B681A60074A7B681360A0
:10ACE0007B6800221A7100BF0C37BD465DF8047BFB
:10ACF000704700BFCDCCCCCC0C1F002080B582B0FB
:10AD000000AF78607B6818331846FFF74BFE7B680E
:10AD100001221A717B6800229A71FEF76DFF00BF55
:10AD20000837BD4680BD000080B588B000AFC7E9D8
:10AD300002017A607B685B697B617B681B69BB6130
:10AD40007B689B68FB61114B186807F114010023B5
:10AD50000C22FEF71DFD7B685B79012B0BD17B6814
:10AD60009B790133DAB27B689A717A68D7E902017C
:10AD7000FFF778FF06E07B685B79022B02D17B68E6
:10AD800001221A7100BF2037BD4680BD041F00207C
:10AD900080B588B000AF0023FB611F4B1B687B614F
:10ADA0007869FFF799FE0346002B01D0FB692FE07D
:10ADB0007B695B68BB61FFF7B4FEC7E902011BE07A
:10ADC000BB69183B7B60BB69D3E902237968C1E9A1
:10ADD0000A23B869FFF792FE7A68D7E90201FFF704
:10ADE000A3FF0123FB617869FFF776FE0346002B82
:10ADF0000CD17B695B68BB61BB69D3E90223D7E9EE
:10AE00000201904271EB0303DAD200E000BFFB695C
:10AE100018462037BD4680BD101F002080B586B083
:10AE200000AFC7E90001124B1B683B613B695B68DF
:10AE30007B6114E07B69FB60FB68183BBB60F868D2
:10AE4000FFF75CFEB968D7E90023C1E90A23BA68B5
:10AE5000D7E90001FFF706FF7B695B687B617A69D0
:10AE60003B699A42E6D100BF00BF1837BD4680BD9E
:10AE7000101F0020B0B584B000AF02F062FB786014
:10AE8000174B1B681846FFF7EDFDC7E9020178680C
:10AE900002F05FFBD7E902234FF000004FF0000102
:10AEA000990241EA925190020E4B1B6800221C4607
:10AEB000154622462B4603F055FC02460B46C7E9D1
:10AEC0000223D7E90223012B05D34FF0FF324FF0C5
:10AED0000003C7E90223BB6818461037BD46B0BD62
:10AEE000101F0020501F002080B588B002AFF02353
:10AEF000BB60484B1B68B968184601F07DFC38619F
:10AF00003B69002B01D1444B7FE0BB680022B9684C
:10AF1000386902F087FA414A3B691360404A3B694D
:10AF200013603B6900229A603B69FB603B693033E8
:10AF30003B610123FB820DE0FA8A3B699A60FB6862
:10AF40003A691A603B69FB60FB8A0133FB823B690B
:10AF500030333B61FB8A042BEED90C230093002392
:10AF6000304A05210020FEF7DBF978607B68002B72
:10AF700007D0284B1B683969184601F02EFE2A4B72
:10AF800043E0FFF735FE78607B68002B07D0214B4C
:10AF90001B683969184601F020FE244B35E0022079
:10AFA000FFF722FD0346224A1360214B1B68002B4A
:10AFB00008D1184B1B683969184601F00EFE4FF096
:10AFC000FF3322E01A4B1B681846FFF730FC78600D
:10AFD0007B68002B08D00F4B1B683969184601F0BD
:10AFE000FCFD4FF0FF3310E01248FFF793F8786054
:10AFF0007B68002B08D0074B1B683969184601F0A5
:10B00000ECFD4FF0FF3300E0002318461837BD4633
:10B0100080BD00BF741F002007030002081F00202E
:10B020000C1F0020041F00200B0300020C03000271
:10B03000101F002091AD020280B586B000AFF8600D
:10B040007A603B600B46FB7200237B61FB68002B40
:10B0500001D1294B4BE0FB7A002B07D0FB7A012B67
:10B0600004D0FB7A022B01D0244B40E07B68002BFC
:10B0700001D1234B3BE03B68002B01D1214B36E053
:10B0800002F05FFA3861204B1B68002B04D138694D
:10B0900002F05FFA1D4B2AE01B4B1B687B617B694A
:10B0A0001B68194A1360386902F053FA7B697A68A1
:10B0B0005A617B69FA7A5A717B69FA68DA607B694E
:10B0C00000221A607B693A6A1A617B6901221A714F
:10B0D0007B6900229A717B699A683B681A6079697A
:10B0E0004FF0FF324FF0FF33C1E908230023184629
:10B0F0001837BD4680BD00BF0103000202030002F5
:10B1000000030002030300020C1F002004030002DE
:10B1100080B586B000AF786000237B617B68B3F1B7
:10B12000FF3F01D1244B43E002F00BFA3861234B7F
:10B1300018687968224BA3FB01239A0813469B00E9
:10B140001344CA1A13465B0013441B010344FB60FB
:10B15000FB689B687A689A4204D0386902F0F9F972
:10B16000184B25E0FB681B79022B09D0022B18DC59
:10B17000002B02D0012B06D013E0124B7B6113E0B1
:10B18000F868FFF7BBFDFFF7CCFC02460B46F968F9
:10B19000C1E90A23FB68D3E90A01FA68FFF762FDF7
:10B1A00002E0094B7B6100BF386902F0D2F97B698C
:10B1B00018461837BD4680BD05030002081F002051
:10B1C000CDCCCCCC060300020E03000280B586B0C5
:10B1D00000AF786000233B6100237B617B68B3F1A3
:10B1E000FF3F01D1214B3CE002F0ABF9F8607968F8
:10B1F0001F4BA3FB01239A0813469B001344CA1A52
:10B2000013467B811B4B19687A8913465B001344F4
:10B210001B010B443B613B699B687A689A4204D0EE
:10B22000F86802F096F9144B1BE03B691B79022B7E
:10B230000CD0022B0EDC002B02D0012B03D009E036
:10B240000D4B7B6109E00D4B7B6106E03869FFF730
:10B2500055FD02E00A4B7B6100BFF86802F079F906
:10B260007B6918461837BD4680BD00BF0503000244
:10B27000CDCCCCCC081F0020060300020D03000239
:10B280000E03000280B586B000AF786000233B61FA
:10B2900000237B617B68B3F1FF3F01D1214B3CE090
:10B2A00002F04FF9F86079681F4BA3FB01239A085D
:10B2B00013469B001344CA1A13467B811B4B196823
:10B2C0007A8913465B0013441B010B443B613B69C5
:10B2D0009B687A689A4204D0F86802F03AF9144BF5
:10B2E0001BE03B691B79022B09D0022B0EDC002BE3
:10B2F00002D0012B06D009E00D4B7B6109E03869D3
:10B30000FFF7FCFC3869FFF7C9FC02E0094B7B61E1
:10B3100000BFF86802F01DF97B6918461837BD4672
:10B3200080BD00BF05030002CDCCCCCC081F00209F
:10B33000060300020E03000280B483B000AF786001
:10B3400039603A687B681344013B7A689A4202D2BA
:10B350003B68013B00E000237A681A443B685B428B
:10B36000134018460C37BD465DF8047B704780B427
:10B3700083B000AF78607B687A685A607B687A68CF
:10B380001A6000BF0C37BD465DF8047B704780B47F
:10B3900083B000AF786039607B685A683B685A6058
:10B3A0003B687A681A607B685B683A681A607B68F9
:10B3B0003A685A6000BF0C37BD465DF8047B7047A1
:10B3C00080B582B000AF786039607B681B683968EF
:10B3D0001846FFF7DCFF00BF0837BD4680BD80B4CC
:10B3E00083B000AF78607B685B687A6812681A6027
:10B3F0007B681B687A6852685A607B6800225A60D2
:10B400007B6800221A6000BF0C37BD465DF8047BE4
:10B41000704780B483B000AF78607B685B687A68FF
:10B420009A420CBF01230023DBB218460C37BD46FD
:10B430005DF8047B7047000080B485B000AF786091
:10B440000023FB600E4B1B687A689A4202D10D4BB9
:10B45000FB600EE00C4B1B687A689A4202D10B4BE2
:10B46000FB6006E00A4B1B687A689A4201D3094BDD
:10B47000FB60FB6818461437BD465DF8047B7047D7
:10B48000281F0020140200022C1F002021020002AD
:10B49000241F00200702000280B584B000AF78604E
:10B4A0007B681B6BFB60802300228021786801F0A1
:10B4B000B9FF7B68FA681A637B6801229A807B680F
:10B4C000483319460348FFF762FF00BF1037BD46F7
:10B4D00080BD00BF301F002080B582B000AF786013
:10B4E00039607B689B8803F40063002B11D07B6874
:10B4F000DB6A002B0DD07B68DA6A3B681A607B68D8
:10B500000022DA627B689B8823F400639AB27B682E
:10B510009A807B689B881BB2002B02DB7868FFF760
:10B52000BBFF00BF0837BD4680BD000080B584B0BA
:10B5300000AF0023BB6002F004F8F8601CE0154B7C
:10B540005B68483BBB60134B5B681846FFF747FFDF
:10B5500000237B603B1D1946B868FFF7BDFFF86804
:10B5600001F0F7FF0C4B1B687A681146184601F092
:10B5700034FB01F0E6FFF8600648FFF74AFF034698
:10B58000002BDCD0F86801F0E4FF00BF1037BD46A7
:10B5900080BD00BF381F0020741F002080B483B01E
:10B5A00000AF78607B68002B02D14FF0FF3303E0DF
:10B5B000044A7B681360002318460C37BD465DF8CB
:10B5C000047B7047441F002080B500AFFFF7AEFF3B
:10B5D000054B1B68002B03D0034B1B689847F5E70E
:10B5E00001F0EAFDF2E700BF441F002080B582B001
:10B5F00000AF354B11221A60334B1B680133DB015E
:10B600003B60324B1B683968184601F0F5F8034679
:10B610002F4A13602E4B1B68002B01D12D4B4EE09F
:10B620002B4B18683B680022396801F0FBFE2A4862
:10B63000FFF79DFE2948FFF79AFE00237B601AE082
:10B64000234B1A687B68DB01134401229A80204B4C
:10B650001A687B68DB0113447A681A631C4B1A680A
:10B660007B68DB011344483319461B48FFF7A8FEEB
:10B670007B6801337B607B68102BE1D908230022B3
:10B680000821174801F0CEFE114B1A680E4B1B68BB
:10B69000DB011344124A1360114B1B687A681A636A
:10B6A0000F4B1B6811229A800D4B1B682022DA80F9
:10B6B0000C4B4FF0FF321A60FEF70EFE03461846A1
:10B6C0000837BD4680BD00BF241F0020741F002026
:10B6D000141F002000020003301F0020381F00202C
:10B6E000181F0020281F002080B588B000AF384602
:10B6F0001C2300221C2101F095FE114B3B604FF4EE
:10B7000000733B610F4B7B611F23BB803B46194697
:10B710000D4800F059F9F861FB69002B01D0FB6975
:10B7200009E00A4B1A68084B1B68DB0113441846F2
:10B73000FEF7E5FC002318462037BD4680BD00BF5C
:10B74000C9B5020238ED0202281F0020141F002094
:10B7500080B400AF064B1B68002B01D1054B02E003
:10B76000034B1B681B6B1846BD465DF8047B704796
:10B77000181F00200702000280B584B000AF786077
:10B780000C4B1A687B68DB011344FB60FB685B6B46
:10B79000FA68126C1046984703461A46FB681A6608
:10B7A000FB681B6B184600F0E7F9B86000BF103764
:10B7B000BD4680BD141F002080B483B000AF786008
:10B7C0007B68002B01D11E4B33E07B685B69002B4B
:10B7D00001D11C4B2DE07B681B68002B01D11A4B5B
:10B7E00027E07B689B881F2B01D9184B21E07B68E1
:10B7F0009B881F2B06D17B681B68154A934201D09A
:10B80000124B16E07B681B69B3F5A04F01D9114BB1
:10B810000FE07B681B69002B03D17B684FF400624B
:10B820001A617B681B69B3F5007F01D20A4B00E007
:10B83000002318460C37BD465DF8047B704700BFF7
:10B8400001020002050200020402000203020002DB
:10B85000C9B50202200200020602000280B582B0D1
:10B8600000AF786039603B689A687B681A643B680F
:10B870001A697B689A627B6800229A637B6800225F
:10B88000DA637B6802229A803B689A887B68DA8058
:10B890007B6800229A607B680022DA603B681A6845
:10B8A0007B685A637B684FF0FF325A667B680022E0
:10B8B0001A673B685A697B685A647B6800229A67FA
:10B8C00079684FF0FF324FF0FF33C1E906237B6800
:10B8D00064331846FDF72EF93B689B69002B0DDA9F
:10B8E0007B689B886FEA43436FEA53439AB27B6855
:10B8F0009A807B6858331846FFF739FD3B68DB6850
:10B90000002B22D13B681B6908211846FFF714FD64
:10B9100002467B689A622A4B18687B689B6A0822F9
:10B92000194600F0A6FF03461A467B68DA627B6878
:10B93000DB6A002B01D1234B3DE07B689B8843F4FD
:10B9400000639AB27B689A8018E03B68DB68082144
:10B950001846FFF7F1FC02467B68DA623B681A6919
:10B960003B68D9687B68DB6ACB1A1A447B689A62A9
:10B970007B689B6A23F007027B689A627B68DB6ABC
:10B9800018467B68996A7B689B6ACA2201F04AFD67
:10B990007B68DB6A1A464FF0CC3313607B68186B08
:10B9A0007B68996A7B68DB6A1A4601F089F902466E
:10B9B0007B681A60002318460837BD4680BD00BF6B
:10B9C000741F00200002000380B586B000AF7860CD
:10B9D000396000237B617B68002B01D1214B3CE067
:10B9E0003868FFF7E9FE38613B69002B01D03B69FD
:10B9F00033E0FFF79BFD01F0A4FDF8601A48FFF764
:10BA000008FD0346002B04D0F86801F0A2FD174B97
:10BA100023E0154B5B68483B7B61134B5B68184622
:10BA2000FFF7DDFCF86801F094FD39687869FFF7ED
:10BA300015FF38613B69002B0AD001F082FDF860E8
:10BA40007869FFF729FDF86801F083FD3B6904E0A0
:10BA50007B691A6B7B681A603B6918461837BD46CC
:10BA600080BD00BF07020002301F0020110200024B
:10BA700080B586B000AF7860396000237B6139689B
:10BA80007868FFF7A1FF38613B69002B01D03B6963
:10BA900016E00D4B1A687B681B68DB0113447B6161
:10BAA00001F04FFDF8607869FEF7F2F9F86801F0EF
:10BAB00050FD064B1B68002B01D0FEF7C3FD002391
:10BAC00018461837BD4680BD141F0020401F0020B7
:10BAD00080B584B000AF78600023FB607B689B88F2
:10BAE0001BB2002B0EDA7B6858331846FFF791FC27
:10BAF0000346002B06D17B68DB6D483BFB60F86892
:10BB0000FEF7C8FA00BF1037BD4680BD80B582B0D1
:10BB100000AF786039603B68483319461248FFF738
:10BB20004FFC124B1A68124B1B68DB011344114A7D
:10BB30001360104B1B687A681A633B689A880D4B38
:10BB40001B6842F0100292B29A800A4B1B683A6856
:10BB5000D26ADA62074B1B683A68526C5A6400BFBB
:10BB60000837BD4680BD00BF381F0020141F0020CD
:10BB7000241F0020181F002080B586B000AF786019
:10BB80000023BB6000237B617868FFF755FC3861B8
:10BB90003B69002B01D03B6986E0454B1A687B6806
:10BBA000DB0113447B6101F0CCFCF8607B699B886E
:10BBB00003F48053002B04D0F86801F0CAFC3D4B1D
:10BBC00072E07B699B8803F00103002B04D0F868C6
:10BBD00001F0BFFC384B67E07B699B8803F48073FE
:10BBE000002B04D0F86801F0B4FC344B5CE07B69B6
:10BBF0009B8803F40053002B04D0F86801F0A9FCE3
:10BC00002F4B51E07B699B8803F01003002B06D07B
:10BC10002C4B1B88002B02D02A4B00221A807869FB
:10BC2000FFF756FF7869FEF7A5F97B69643318467C
:10BC3000FDF72AF97B694FF0FF325A667B690022D3
:10BC40001A677B699B8803F01003002B16D07B6971
:10BC50009B881BB2002B0ADB7B699B8843F00103A6
:10BC60009AB27B699A8079697868FFF74FFFF86824
:10BC700001F06FFCFEF7E6FC002315E0FFF768FD1E
:10BC800002467B691A6607F1080319467869FFF7CF
:10BC900023FCF86801F05DFC0B4B1B68BA68114689
:10BCA000184600F09AFF002318461837BD4680BD9D
:10BCB000141F0020140200020A02000227020002E0
:10BCC00029020002201F0020741F002080B584B0CC
:10BCD00000AF786001F080FA0346002B01D0154BCD
:10BCE00024E0154B1B88002B01D0144B1EE0144B95
:10BCF0001B689B8803F48053002B01D0114B15E087
:10BD00007B68002B03D100F01FF803460EE001F022
:10BD100018FCF8600A4B1B6879681846FEF77AF938
:10BD2000F86801F016FCFEF78DFC0023184610376A
:10BD3000BD4680BD0D020003201F00200E02000240
:10BD4000181F00201402000280B582B000AF01F07D
:10BD5000F8FB7860FEF74CF9786801F0FAFBFEF723
:10BD600071FC002318460837BD4680BD2DE9B0435D
:10BD700082B000AF00237B600F4B1B68002B13D1F8
:10BD80000E4B1B685B693A1D104698477B68002282
:10BD90001C4615460A4BD3E9002314EB020845EB79
:10BDA0000309074BC3E90089034B00221A6000BF57
:10BDB0000837BD46BDE8B083701F0020481F002033
:10BDC000601F002080B582B000AFC7E900010C4BB6
:10BDD000D3E90023D7E90001904271EB030305D2B8
:10BDE000012001F009FA01F0ACFBFEE70449D7E9B4
:10BDF0000023C1E9002300BF0837BD4680BD00BF56
:10BE0000601F002080B500AFFFF7B0FFFEF7BCFB5E
:10BE100000BF80BD80B582B000AFC7E9000100F06F
:10BE200017F802460B460849C1E90023074B1B6877
:10BE30009B69D7E90001984702460B461046194610
:10BE40000837BD4680BD00BF601F0020481F00208E
:10BE50002DE9F04F8BB000AF0023FB6001F071FBC8
:10BE6000F8612D4B1B685B6907F10C02104698477F
:10BE7000C7E90401294BD3E90023D7E90401861857
:10BE80003E6041EB03037B60D7E90023C7E9082349
:10BE9000234BD3E90023D7E90801904271EB030358
:10BEA0001BD2FB6800221C4615461C4BD3E900231D
:10BEB00014EB020A45EB030B184BC3E900AB174B1D
:10BEC000D3E90023D7E9040110EB020841EB030991
:10BED000C7E90889134B01221A60114BD3E90023EB
:10BEE000D7E90801904271EB030305D2012001F06C
:10BEF00083F901F026FBFEE70949D7E90823C1E9E8
:10BF00000023F86901F025FBD7E9082310461946FC
:10BF10002C37BD46BDE8F08F481F0020601F002071
:10BF2000681F0020701F002080B584B000AF364B22
:10BF3000FB6001F037F90346344A1360334B1B684A
:10BF40001B69002B13D0314B1B689B69002B0ED053
:10BF50002E4B1B68DB69002B09D02C4B1B681B6A1E
:10BF6000002B04D0294B1B685B69002B01D1284BA7
:10BF700045E0264B1B685B6A002B03D0234B1B68F4
:10BF80005B6AFB6001F0DDFAB860204B1B681B693F
:10BF9000F868984778607B68002B04D0B86801F097
:10BFA000D8FA7B682BE0194B1B681B68002B05D067
:10BFB000164B1B681B68B3F5806F04D2B86801F09C
:10BFC000C8FA144B1BE0114B1B685B68802B04DD27
:10BFD000B86801F0BEFA104B11E00C4B1B681B68EF
:10BFE0000E4A1360094B1B681B689B0A0C4A1360BE
:10BFF0000C4B01221A60B86801F0ABFA0023184616
:10C000001037BD4680BD00BF05BE0202481F00209C
:10C01000160000021100000200040002501F002060
:10C020004C1F0020541F002080B483B000AFC7E92C
:10C0300000010549D7E90023C1E9002300BF0C37FF
:10C04000BD465DF8047B7047581F00202DE9B043C2
:10C0500000AFFFF7FDFE0E4BD3E90023841A61EB1E
:10C0600003054FF000004FF00001A90241EA94518E
:10C07000A002084B1B6800229846914642464B4658
:10C0800002F070FB02460B4610461946BDE8B0832D
:10C09000581F0020501F002080B582B000AF78608C
:10C0A0007968B1F1FF3F02D14FF0FF3314E07968B6
:10C0B00000200A4603464FF000004FF000019902AD
:10C0C00041EA925190024FF47A724FF0000302F06D
:10C0D00049FB02460B46134618460837BD4680BD4D
:10C0E00080B483B000AF786039603A687B681344ED
:10C0F000013B7A689A4202D23B68013B00E0002390
:10C100007A681A443B685B42134018460C37BD46B8
:10C110005DF8047B704780B483B000AF78607B68C3
:10C120005B427A6813407B607B68B3FA83F39BB20F
:10C13000C3F11F039BB218460C37BD465DF8047B64
:10C14000704780B483B000AF78607B68B3FA83F344
:10C150009BB2C3F11F039BB218460C37BD465DF876
:10C16000047B704780B582B000AF78607B68002B9D
:10C1700004D07868FFF7E5FF034600E00023184687
:10C180000837BD4680BD80B582B000AF78607B685F
:10C190007F2B03D87B689B08013B04E07868FFF79E
:10C1A000E1FF0346183318460837BD4680BD80B40A
:10C1B00085B000AF786039603B681E2B02D97B6880
:10C1C0007F2B01D8002308E07B68DA003B68183B2E
:10C1D00022FA03F3FB60FB68083B18461437BD46A0
:10C1E0005DF8047B704780B483B000AF786039603D
:10C1F0007B681A693B681A447B681A617B681A6914
:10C200007B68DB689A4203D97B681A697B68DA60CD
:10C2100000BF0C37BD465DF8047B704780B584B025
:10C2200000AF78607868FFF7AEFFF860FB681E2B00
:10C2300001D8FB680AE0F9687868FFF7B8FFB860D2
:10C24000FB681F3BDA00BB6813441F3318461037E6
:10C25000BD4680BD80B487B000AFF860B9607A6039
:10C2600000237B61FB68BA680C3253F822307B6193
:10C2700009E07B695B687A689A4201D87B6906E0CD
:10C280007B69DB687B617B69002BF2D10023184658
:10C290001C37BD465DF8047B704780B584B000AFA5
:10C2A000786039603B685B097A6804339B0013440B
:10C2B0005B68FB603B6803F01F03012202FA03F393
:10C2C0005B421A46FB681340FB60FB68002B0BD0F7
:10C2D000F868FFF720FF03461A463B6823F01F0368
:10C2E00013443B603B6800E0DF2318461037BD462F
:10C2F00080BD80B58CB000AFF860B9607A60FB6833
:10C300007B62B868FFF73FFF3862DF23BB623B6A9E
:10C310001E2B02D83B6AFB620EE0396AB868FFF751
:10C3200046FFF8613B6A1F3BDA00FB6913441F3389
:10C33000BB62BB6A0133FB62F96A786AFFF7ADFF43
:10C34000B861BB69DF2B02D0BB69FB6230E0FB6ADE
:10C35000013320211846FFF7C3FEF86216E0FB6A9E
:10C360005B097A6A04339B0013445B687B617B69D9
:10C37000002B08D07869FFF7CEFE03461A46FB6A09
:10C380001344FB6214E0FB6A2033FB62FB6ADE2B82
:10C39000E5D9BB6ADF2B01D1002311E07B68BA6AC3
:10C3A0001A60BA68B96A786AFFF754FF034607E073
:10C3B0007B68FA6A1A607B6AFA6A0C3253F8223098
:10C3C00018463037BD4680BD80B483B000AF78607A
:10C3D00039603B685B097A6804339B0013445968F1
:10C3E0003B6803F01F0301229A403B685B090A4344
:10C3F000796804339B000B445A6000BF0C37BD467C
:10C400005DF8047B704780B483B000AF786039601A
:10C410003B685B097A6804339B00134459683B68A6
:10C4200003F01F03012202FA03F3DA433B685B09BE
:10C430000A40796804339B000B445A6000BF0C37F4
:10C44000BD465DF8047B704780B586B000AFF860EC
:10C45000B9607A60FB68BA680C3253F822307B61AD
:10C460007B69002B02D07B697A689A607B68002226
:10C470009A607B687A69DA60FB68BA680C3279681E
:10C4800043F82210B968F868FFF79EFF00BF18371D
:10C49000BD4680BD80B584B000AFF860B9607A60F9
:10C4A000FB68BA680C3253F822307A689A4214D189
:10C4B0007B68D968FB68BA680C3243F822107B6845
:10C4C000DB68002B04D1B968F868FFF79CFF12E025
:10C4D0007B68DB6800229A600DE07B689B687A6865
:10C4E000D268DA607B68DB68002B04D07B68DB688D
:10C4F0007A6892689A6000BF1037BD4680BD000020
:10C5000080B584B000AF786039603B685B681846DE
:10C51000FFF784FEF860FB68DE2B03D9F968064854
:10C52000FCF7DEFC3A68F9687868FFF78DFF00BF1A
:10C530001037BD4680BD00BF44ED020280B584B017
:10C5400000AF786039603B685B681846FFF766FEAD
:10C55000F8603A68F9687868FFF79CFF00BF103709
:10C56000BD4680BD80B586B000AF786039607B681D
:10C570007B6107F10C031A4639687868FFF7B9FE4A
:10C5800038613B69002B01D1002306E0FB683A6962
:10C5900019467869FFF77EFF3B6918461837BD4694
:10C5A00080BD80B485B000AF78600023FB607B68FD
:10C5B0001B6859687B685A687B681B680A445A6024
:10C5C0007B685A687B681344FB607B681A68FB6869
:10C5D0001A6000BF1437BD465DF8047B704780B514
:10C5E00086B000AFF860B9607A6000237B610023F9
:10C5F0003B61BA687B6813447B617B69BA681A60E7
:10C60000BB685A687B68D21A7B695A60BB687A68D3
:10C610005A607A697B695B6823F0404313443B614D
:10C620007A693B691A603B695B68002B06DB3969F4
:10C63000F868FFF783FF3869FFF7B3FF7969F86897
:10C64000FFF75EFF00BF1837BD4680BD80B485B0E0
:10C6500000AF78607B68FB60FB68083318461437CE
:10C66000BD465DF8047B704780B586B000AF78604A
:10C6700039607B687B6100233B610023FB604FF4E2
:10C680006B7300223968786900F0CCFE7B697A68A8
:10C690001A607B693A685A607B699B6823F00302E1
:10C6A0007B699A607B6803F56B733B613B68A3F51C
:10C6B0006D723B695A603B68083B7A681A443B6973
:10C6C0001A6039697868FFF71BFF3B68083B7A6896
:10C6D0001344FB60FB6800225A60FB683A691A60E9
:10C6E000FB685B6843F00042FB685A607B694FF46B
:10C6F0006D721A617B691A697B69DA6000231846DA
:10C700001837BD4680BD80B582B000AF7860396013
:10C710007B68002B03D03B68B3F56D7F02D84FF0E8
:10C72000FF3317E07B6803F00303002B04D13B6861
:10C7300003F00303002B02D04FF0FF330AE0396807
:10C740007868FFF791FF0346002B02D04FF0FF33CC
:10C7500000E0002318460837BD4680BD80B586B08E
:10C7600000AFF860B9607A6000237B61BB680B336F
:10C7700023F003033B613969F868FFF7F3FE786142
:10C780007B69002B16D1FB689B6803F00203002B2A
:10C7900002D1786800F0DDFEF86800F068FAFB6806
:10C7A0009B6803F00203002B02D100F0CAFE786000
:10C7B00000231DE03B6903F110027B695B689A422C
:10C7C00004D83A697969F868FFF709FF7B695B6803
:10C7D00043F000427B695A607B695B6823F0404309
:10C7E0001946F868FFF7FFFC7869FFF72FFF03464B
:10C7F00018461837BD4680BD80B586B000AF78605A
:10C8000039607B68002B02D03B68002B01D10023EC
:10C810002BE03B68072B01D808233B607B68FB605B
:10C8200000237B6100233B61FB689B6803F00203EC
:10C83000002B02D100F085FE38613B68002B0ADB3B
:10C840003B6803F08043002B05D13A693968F868EA
:10C85000FFF784FF7861FB689B6803F00203002BFD
:10C8600002D1386900F075FE7B6918461837BD465D
:10C8700080BD80B58CB000AFF860B9607A60FB68AD
:10C88000002B10D0BB68002B0DD07B68002B0AD08A
:10C890007B685A1E7B681340002B04D17B6803F031
:10C8A0000303002B01D0002362E0BB68072B01D8F3
:10C8B0000823BB607B681A1FBB68DB439A4201D91F
:10C8C000002355E0BA687B681344043B7B627B6AB3
:10C8D000002B04DB7B6A03F08043002B01D0002394
:10C8E00046E0FB683B620023FB620023BB6200233F
:10C8F000FB613B6A9B6803F00203002B02D100F04E
:10C9000020FEF862FA6A796AF868FFF727FFB862D2
:10C91000BA6A7B6813445A1E7B685B421340FB6112
:10C92000BA6AFB699A4218D0FA69BB6AD31ABB612A
:10C93000BB6A083B7B617B695B6843F080427B6933
:10C940005A60BB6943F08043BB61FB69043B1A46F4
:10C95000BB691360FB69BB6200E000BF3B6A9B6878
:10C9600003F00203002B02D1F86A00F0F2FDBB6A6B
:10C9700018463037BD4680BD80B485B000AF7860C2
:10C9800039607B685B68FB607B6803F56B733A68B2
:10C990009A4208D37A68FB6813441A463B6893426C
:10C9A00001D2012300E0002318461437BD465DF88C
:10C9B000047B704780B584B000AFF860B9607A60DE
:10C9C0003B60BA68FB689A4203D8FA687B689A426F
:10C9D00001D9002311E0FB685B68002B01DA012319
:10C9E0000BE0FB681B6819463868FFF7C5FF034674
:10C9F000002B01D1002300E0012318461037BD466B
:10CA000080BD80B586B000AF786039607B6803F583
:10CA10006B733B617B685B68083B7A681344FB601F
:10CA20000023BB6000237B617B68FA683969386842
:10CA3000FFF7C0FF0346002B34D03B685B68002B38
:10CA400032DA3B685B6823F040433A681344BB60CA
:10CA50007B68FA683969B868FFF7ACFF0346002BBA
:10CA600024D0BB681B683A689A4221D13A683B6976
:10CA70009A4214D03B6818687B68FA683969FFF7F6
:10CA800099FF0346002B14D03B681A683B681B686B
:10CA90005B6823F0404313443A689A4209D101236A
:10CAA0007B6106E000BF04E000BF02E000BF00E0E1
:10CAB00000BF7B69002B02D14FF0FF3303E07B699D
:10CAC000002BB1D0002318461837BD4680BD80B575
:10CAD00086B000AF7860396039687868FFF791FFF9
